:040000000DEF00F010
:040008001FEF07F0EF
:06001800FF004DEF0CF0AB
:100E0000007C17000000000000000000000000004F
:100E100000000000000000000000000000000000D2
:100E20000000000000001F0000781E521E2C1E0053
:100E300000F41C000000000000A41F000000FAC421
:100E400013F5FBC414F5AEA228EF07F02AEF07F064
:100E500041EF07F0BAA22FEF07F031EF07F041EFB3
:100E600007F002D83FEF07F005000501FA6E985130
:100E7000FD6E9951FE6EF850FF6EFA50120009EFA8
:100E800008F0AEA046EF07F048EF07F05FEF07F07D
:100E9000BAA04DEF07F04FEF07F05FEF07F002D871
:100EA0005DEF07F005000501FA6E9651FD6E975152
:100EB000FE6EF850FF6EFA50120009EF08F0ADAE6A
:100EC00064EF07F066EF07F071EF07F0B9AE6BEF74
:100ED00007F06DEF07F071EF07F05CEC0EF009EF33
:100EE00008F04A50D8B477EF07F079EF07F0A0EF99
:100EF00007F08E0E0201C719D8B481EF07F083EF17
:100F000007F0A0EF07F0860EC719D8B48AEF07F0F4
:100F10008CEF07F0A0EF07F04A50D8B492EF07F03B
:100F200094EF07F095EF07F0C895000E05017C6F70
:100F3000000E7D6F000E7E6F000E7F6F09EF08F0D0
:100F40008E0E0201C719D8B4A8EF07F0AAEF07F078
:100F5000B3EF07F0860EC719D8A4B1EF07F0B3EFCF
:100F600007F0D4EF07F0C099C895C59360EC0FF077
:100F7000A9EC0DF01BEC0EF0C0EF07F0B6C215F5B2
:100F80000201C5B1C6EF07F0C8EF07F0BEEF07F0EA
:100F9000C089C8854A6AD00E116ECA0EE82EFED7E7
:100FA000112EFCD709EF08F0010E05017C27000E79
:100FB0007D237E237F237F510DE1A10E7C5D860E74
:100FC0007D59010E7E59D8A0E8EF07F0EAEF07F04F
:100FD00009EF08F0520E126E2B0E116E000EE82E65
:100FE000FED7112EFCD7122EFAD700D0000E050125
:100FF0007C6F000E7D6F000E7E6F000E7F6F60ECC9
:101000000FF0A9EC0DF01BEC0EF0D68E4A6A09EF3A
:1010100008F014C5FBF413C5FAF41100000E050125
:10102000EF6F000EEE6FEEC5E8F5EFC5E9F5D8906D
:10103000E837E937D890E837E937D890E837E93723
:10104000900EE825D96E060EE921DA6EDEC4EAF5C7
:10105000DDC4EBF5EA51FF08DD6FEB51D8A0E82ABB
:101060000008DE6FEEC5E8F5EFC5E9F5D890E83782
:10107000E937D890E837E937D890E837E937920E62
:10108000E825D96E060EE921DA6EDEC4EAF5DDC484
:10109000EBF5EA51FF08DB6FEB51D8A0E82A000816
:1010A000DC6FEEC5E8F5EFC5E9F5D890E837E9372C
:1010B000D890E837E937D890E837E937940EE82533
:1010C000D96E060EE921DA6EDEC4EAF5DDC4EBF571
:1010D000EA51FF08D96FEB51D8A0E82A0008DA6F6F
:1010E000EEC5E8F5EFC5E9F5D890E837E937D890CF
:1010F000E837E937D890E837E937960EE825D96E12
:10110000060EE921DA6EDEC4EAF5DDC4EBF5EA513C
:10111000FF08D76FEB51D8A0E82A0008D86F000E5F
:10112000E06F020EDF6FDDC5E1F572EC0BF0000E33
:101130000501E06F010EDF6FDBC5E1F572EC0BF02E
:10114000000E0501E06F020EDF6FD9C5E1F526EC58
:101150000BF0000E0501E06F010EDF6FD7C5E1F562
:1011600026EC0BF057EC10F055EC10F0000E0501DA
:10117000ED6F000EEC6F0201C7A5C1EF08F0C3EFE1
:1011800008F0C5EF08F0EFEF08F0150E0501E86F65
:10119000C60EE82EFED7E82FFCD700000501EC4B69
:1011A000ED2BEDBFDDEF08F0E80EEC5D030EED5921
:1011B000D8A0DDEF08F0DFEF08F0BBEF08F0EE4B52
:1011C000EF2BEFBFEDEF08F0EF5109E1080EEE5DF8
:1011D000D8A0EDEF08F0EFEF08F013EF08F01200E1
:1011E000520E0501F16F2B0EF06F000EE82EFED7A8
:1011F000F02FFCD7F12FFAD700004FEC0FF080EC66
:101200000DF0FAEC0DF0E20E166E1E0E176E80EC6D
:101210000FF0D68E010152990001B3810501F26BE6
:101220003F2A05019B51FF0AF06FF051DD6FDE6B25
:101230009C51FF0AF06FF051DB6FDC6B9D51FF0A90
:10124000F06FF051D96FDA6B9E51FF0AF06FF051D9
:10125000D76FD86B000EE06F020EDF6FDDC5E1F5D2
:1012600072EC0BF0000E0501E06F010EDF6FDBC5C5
:10127000E1F572EC0BF0000E0501E06F020EDF6F7E
:10128000D9C5E1F526EC0BF0000E0501E06F010E6B
:10129000DF6FD7C5E1F526EC0BF057EC10F055ECFD
:1012A00010F00201C7B557EF09F059EF09F073EFDD
:1012B00009F0D00E0501F06FC90EE82EFED7F02F11
:1012C000FCD700D00201C7B568EF09F06AEF09F05A
:1012D00074EF09F0010E0501F26F0201C8950EECE2
:1012E00008F074EF09F0C8850501F251D8B47BEF1E
:1012F00009F07DEF09F090EF09F0D69ED00E0501C0
:10130000F06FC90EE82EFED7F02FFCD700D04FECBF
:101310000FF080EC0DF0FAEC0DF00501F26BD68EBB
:101320004A50D8B496EF09F098EF09F010EF09F0A1
:101330000201C8854A6A10EF09F00DEF00F046502F
:10134000020D600EF324D96E050EF420DA6EDE6A0B
:10135000DD6A0201C7A7AFEF09F0B1EF09F0D1EFE5
:1013600009F04650020D600EF324D96E050EF420EC
:10137000DA6E0501DF828C518D11D8B4C2EF09F00D
:10138000C4EF09F0D1EF09F002D8D1EF09F0050060
:10139000FA6E8C51FD6E8D51FE6EF850FF6EFA5054
:1013A00012000201C7A3D7EF09F0D9EF09F0F9EF56
:1013B00009F04650020D600EF324D96E050EF4209C
:1013C000DA6E0501DF848A518B11D8B4EAEF09F097
:1013D000ECEF09F0F9EF09F002D8F9EF09F0050098
:1013E000FA6E8A51FD6E8B51FE6EF850FF6EFA5008
:1013F0001200B6C210F5A20E4624D96EDA6A050EA6
:10140000DA2210C5DFF4040E4618D8A40AEF0AF059
:101410000CEF0AF011EF0AF0466A010E4A6E13EF64
:101420000AF0462A442A050184518511D8B41BEFDD
:101430000AF01DEF0AF031EF0AF0A20E0C6E050E55
:101440000D6E44C50EF50F6A02D831EF0AF00500A3
:10145000FA6E8451FD6E8551FE6EF850FF6EFA50A3
:1014600012001200000E2A6E000E2B6E000E2C6E63
:10147000000E2D6E2650271028102910D8B443EFE7
:101480000AF045EF0AF07BEF0AF0010E2E6E4FEFE7
:101490000AF0D89026362736283629362E2A29AE45
:1014A00054EF0AF056EF0AF049EF0AF0D8902A36C6
:1014B0002B362C362D362650225C275023582850A8
:1014C000245829502558D8A068EF0AF06AEF0AF08E
:1014D00073EF0AF02650225E2750235A2850245AD0
:1014E0002950255A2A80D89029322832273226328C
:1014F0002E2E56EF0AF02AC522F52BC523F52CC552
:1015000024F52DC525F512000101406B416B426B9E
:101510000401026B0A6B126B1A6B226B01014869A2
:10152000F00E496F2F0E4A6F080E4C6F04010069D0
:101530000869070E106F070E206F016B096B116BA6
:10154000196B216B03690B697F0E136F1B69070E03
:10155000236F04690C697F0E146F1C690F0E246FD2
:101560000201866B876B846B856B150E726F150E8F
:10157000176F110E0C6F120E0B6F0F0E0A6F100EFD
:10158000096F0401056B066B076B3D6B3E6B3F6B90
:101590000D6B0E6B0F6B156B166B176B1D6B1E6B4C
:1015A0001F6B256B266B276B12000101406B416B93
:1015B000426B0401026B0A6B126B1A6B226B010106
:1015C0004869F00E496F2F0E4A6F080E4C6F0401E8
:1015D00000690869070E106F070E206F016B096B19
:1015E000116B196B216B03690B697F0E136F1B69FC
:1015F000070E236F04690C697F0E146F1C690F0EB0
:10160000246F0201866B876B846B856B150E726F7E
:10161000150E176F110E0C6F120E0B6F0F0E0A6F57
:10162000100E096F0401056B066B076B3D6B3E6B7B
:101630003F6B0D6B0E6B0F6B156B166B176B1D6B8A
:101640001E6B1F6B256B266B276B120073500501F9
:10165000E26F7250E46FE2C5E5F5E4C516F5E5C545
:1016600017F5186A196AE1511A6E1B6A1C6A1D6A1D
:101670008BEC0CF016C522F517C523F518C524F51B
:1016800019C525F5FF0E266E000E276E000E286E7A
:10169000000E296E32EC0AF022C5E6F523C5E7F507
:1016A0000501DF05E011D8A458EF0BF05AEF0BF05D
:1016B00060EF0BF0E6C516F5E7C517F5E1EC0FF0A6
:1016C000020E0501DF19E011D8A469EF0BF06BEFF2
:1016D0000BF071EF0BF0E6C516F5E7C517F5DCEC7E
:1016E0000FF0120064500501E26F6350E46FE2C531
:1016F000E5F5E4C516F5E5C517F5186A196AE1516F
:101700001A6E1B6A1C6A1D6A8BEC0CF016C522F55A
:1017100017C523F518C524F519C525F5FF0E266E46
:10172000000E276E000E286E000E296E32EC0AF0B5
:1017300022C5E6F523C5E7F50501DF05E011D8A4CC
:10174000A4EF0BF0A6EF0BF0ACEF0BF0E6C516F52F
:10175000E7C517F5EBEC0FF0020E0501DF19E011FC
:10176000D8A4B5EF0BF0B7EF0BF0BDEF0BF0E6C56B
:1017700016F5E7C517F5E6EC0FF01200D7AEC3EF8C
:101780000BF008EF0CF0AE903E0E0501966F130EB5
:10179000976FAE922E0E986F1D0E996F0201B66B69
:1017A000B76BB86BB96BBA6BBB6BBC6BBD6BBE6B0D
:1017B000BF6BB00EC06F800EC16F280EC26F3F0EA0
:1017C000C36FC46B2E0EC56FC66B800EC76FC86B20
:1017D000B40E166E200E176E3CEC0FF0B20E166EA5
:1017E000200E176E29EC0FF0000E166E000E176E0D
:1017F00016EC0FF0000E05018F6F000E8E6F496A18
:10180000486A080E476E466A456A446AAE8012000E
:10181000AE903E0E0501966F130E976FAE922E0E90
:10182000986F1D0E996F0201B66BB76BB86BB96BF1
:10183000BA6BBB6BBC6BBD6BBE6BBF6BB00EC06FCE
:10184000800EC16F280EC26F3F0EC36FC46B2E0E89
:10185000C56FC66B800EC76FC86BB40E016E200ECD
:10186000026EAAEC0FF0B20E016E200E026E9CEC1E
:101870000FF0000E016E000E026E8EEC0FF0000EE7
:1018800005018F6F000E8E6F496A486A080E476E19
:10189000466A456A446AAE801200780EF66E1C0EE7
:1018A000F76E000EF86E01EE90F210EE40F00900B7
:1018B000F5C4EEF4E550E150FAE1CC0EF66E1D0EE3
:1018C000F76E000EF86E01EEAFF110EE30F0090089
:1018D000F5C4EEF4E550E150FAE101EE00F2900EAD
:1018E000EE6AE806FDE101EE60F14F0EEE6AE806F1
:1018F000FDE101EE2FF11C0EEE6AE806FDE10401A8
:10190000080E5D6F000E5E6F000E5F6F000EF86ECA
:101910000001F0EF08F0000E1E6E000E1F6E000EAC
:10192000206E000E216E16A098EF0CF09AEF0CF0CE
:10193000A2EF0CF01A501E261B501F221C50202212
:101940001D502122D8901A361B361C361D36D890D1
:101950001932183217321632165017101810191083
:10196000D8A4B5EF0CF0B7EF0CF093EF0CF01EC558
:1019700016F51FC517F520C518F521C519F5120074
:101980006F6A020E706E716A7F0E726E0C0E736E4D
:10199000746A756A766A776A796A400E7A6E060E9C
:1019A0007B6E400E7C6E060E7D6EBB9CBB9E769061
:1019B0007692AF9EAF9C000E166E000E176EF5EC81
:1019C0000FF0000E166E000E176EF0EC0FF0000E0A
:1019D000166E000E176EFAEC0FF0800E786E120085
:1019E000606A020E616E626A7F0E636E0C0E646E38
:1019F000656A666A676A686A6A6A400E6B6E060E96
:101A00006C6E400E6D6E060E6E6EBA9CBA9E67903E
:101A10006792AE9EAE9C000E166E000E176E04EC22
:101A200010F0000E166E000E176EFFEC0FF0000E99
:101A3000166E000E176E09EC10F0800E696E120023
:101A40006F6A020E706E716A7F0E726E0C0E736E8C
:101A5000746A756A766A776A796A400E7A6E060EDB
:101A60007B6E400E7C6E060E7D6EBB9CBB9E7690A0
:101A70007692AF9EAF9C000E016E000E026E27ECB8
:101A800010F0000E016E000E026E22EC10F0000E3F
:101A9000016E000E026E2CEC10F0800E786E1200BB
:101AA000606A020E616E626A7F0E636E0C0E646E77
:101AB000656A666A676A686A6A6A400E6B6E060ED5
:101AC0006C6E400E6D6E060E6E6EBA9CBA9E67907E
:101AD0006792AE9EAE9C000E016E000E026E36EC5A
:101AE00010F0000E016E000E026E31EC10F0000ED0
:101AF000016E000E026E3BEC10F0800E696E12005B
:101B00000201C051F00B0A09C06FC09BC089C29D81
:101B1000C251CF0B2009C26F0E0EC86F200EC56FC9
:101B2000000EBB6F000EBA6F000EBD6F040EBC6FCF
:101B3000000EBF6F070EBE6FC08F000EC46F3F0E4A
:101B4000C36F01014A8B150E0201726FC18FAE8403
:101B500012000201C051F00B0A09C06FC09BC0897E
:101B6000C29DC251CF0B2009C26F0E0EC86F200E4E
:101B7000C56F000EBB6F000EBA6F000EBD6F040E76
:101B8000BC6F000EBF6F070EBE6FC08F000EC46F1C
:101B90003F0EC36F01014A8B150E0201726FC18F98
:101BA000AE84120003C509F504C50AF501C507F5A1
:101BB00002C508F5ECEF0DF009C5D9F40AC5DAF451
:101BC000DF500B6E094A0A2A07C5D9F408C5DAF4B2
:101BD0000BC5DFF4074A082A0506D8A00606052823
:101BE00006E10628D8A4F7EF0DF0F9EF0DF0DCEFD1
:101BF0000DF012000001E76BB60EF86F020EF96FE0
:101C0000000EFA6F050EF06FAA0EEF6FE70EFC17CD
:101C1000F90EFC17FC513F0B4009FC6F000EF76FEB
:101C2000010EF66F000EEE6F050EED6F200EFE6FCB
:101C3000FB8DFB8F12000001E76BB60EF86F020EF2
:101C4000F96F000EFA6F050EF06FAA0EEF6FE70E38
:101C5000FC17F90EFC17FC513F0B4009FC6F000EFE
:101C6000F76F010EF66F000EEE6F050EED6F200E92
:101C7000FE6FFB8DFB8F1200FF00000000000000D4
:101C8000FC00960008000000F700F30016000000BA
:101C90002000C4000E0000000D004900D600000026
:101CA0002000030080000000C0000C00F2000000D3
:101CB000000000000000FF00B99E30500301196FC2
:101CC0002FC518F3050190519111D8B46AEF0EF0A9
:101CD0006CEF0EF079EF0EF002D879EF0EF0050000
:101CE000FA6E9051FD6E9151FE6EF850FF6EFA50F3
:101CF00012001200D7AE7FEF0EF0FEEF0EF0060ED0
:101D00000301196F186B700E1B6F1951186E185163
:101D10002F6E18C530F5B60E166E200E176ED2EC6B
:101D20000FF0B99EAD8E900E03011A6F1200080ECF
:101D300047609DEF0EF09FEF0EF0B0EF0EF0700ECB
:101D40004824D96EDA6A050EDA22DF500201B86F34
:101D50004828070B016E01C548F5472AB1EF0EF080
:101D6000AE921200D69AB790D680000E166E000E74
:101D7000176E18EC10F0BC90D682000E166E000E96
:101D8000176E13EC10F0C090D684000E166E000E85
:101D9000176E0EEC10F01200D69AB790D680000E97
:101DA000016E000E026E4AEC10F0BC90D682000E5E
:101DB000016E000E026E45EC10F0C090D684000E4D
:101DC000016E000E026E40EC10F01200C00CF2002A
:101DD000200380000D49D60020C40E00F7F3160042
:101DE000FC960800FF00000064640000640000002E
:101DF000006400000100010001000100060E030163
:101E0000196F186B700E1B6F1951036E18512F6EDE
:101E100003C530F5B60E016E200E026E1DEC10F0FB
:101E2000B99EAD8E900E03011A6F1200D7AE1BEF54
:101E30000FF08EEF0FF016501710D8B422EF0FF0FE
:101E400024EF0FF028EF0FF016C588F517C589F5B8
:101E50001200D7AE2EEF0FF09CEF0FF016501710B8
:101E6000D8B435EF0FF037EF0FF03BEF0FF016C59A
:101E70008AF517C58BF51200D7AE41EF0FF0AAEF28
:101E80000FF016501710D8B448EF0FF04AEF0FF0CC
:101E90004EEF0FF016C58CF517C58DF51200B8EC96
:101EA0000FF084EC0AF0F0EC0CF0C0EC0CF07AECE3
:101EB0000EF0BEEC0BF04FEC10F0B2EC0EF0120096
:101EC000C5EC0FF0D5EC0AF050EC0DF020EC0DF065
:101ED000FEEC0EF008EC0CF052EC10F0CCEC0EF036
:101EE00012009A0E016E050E026E0CC503F50DC5AB
:101EF00004F5000E066E050E056ED2EC0DF0120014
:101F000016501710D8B487EF0FF089EF0FF08DEF50
:101F10000FF016C584F517C585F5120001500210A3
:101F2000D8B495EF0FF097EF0FF09BEF0FF001C5CE
:101F300088F502C589F5120001500210D8B4A3EF4C
:101F40000FF0A5EF0FF0A9EF0FF001C58AF502C55C
:101F50008BF5120001500210D8B4B1EF0FF0B3EFBF
:101F60000FF0B7EF0FF001C58CF502C58DF512002B
:101F7000600E0001AD6F400EAF6FB36B080EB16F16
:101F8000B06BAC6B0401586B1200600E0001AD6FBA
:101F9000400EAF6FB36B080EB16FB06BAC6B04014A
:101FA000586B1200D7AED7EF0FF01DEF10F016C52B
:101FB00090F517C591F5120016C57CF417507D6E8B
:101FC000120016C57AF417507B6E120016C56DF418
:101FD00017506E6E120016C56BF417506C6E12001F
:101FE00016C535F517C536F5120016C537F517C5F0
:101FF00038F5120016C533F517C534F5120016C5AD
:102000003BF517C53CF5120016C53DF517C53EF565
:10201000120016C539F517C53AF5120016C592F526
:1020200017C593F5120016C594F517C595F512005E
:1020300016C531F517C532F5120001C590F502C578
:1020400091F5120001C535F502C536F5120001C53E
:1020500037F502C538F5120001C533F502C534F570
:10206000120001C53BF502C53CF5120001C53DF566
:1020700002C53EF5120001C539F502C53AF5120058
:1020800001C592F502C593F5120001C594F502C58C
:1020900095F5120001C531F502C532F512000101B6
:1020A0000D6B120001010D6B12007884120069841F
:0820B0001200120012001200E0
:020000040030CA
:0700000086FFF7FF9FFF1FC1
:03000800FFFFFFF8
:02001800FFFFE8
:01001C00FFE4
:00000001FF
