:040000000DEF00F010
:0400080009EF0AF002
:06001800FF0060EF0AF09A
:100E000000FA1500000000000000000000000000D3
:100E100000000000000000000000000000000000D2
:100E200000000000000000000020190419E818006C
:100E3000009A1800000000000096190000004AC542
:100E40004EF549C54FF54BC550F54CC54DF54E28EF
:100E5000D8A42DEF07F02FEF07F04AEF07F04F2847
:100E6000D8B435EF07F037EF07F04AEF07F05050EE
:100E7000D8A43DEF07F03FEF07F04AEF07F04D50E1
:100E8000D8A445EF07F047EF07F04AEF07F0492AEB
:100E900081EF08F04F28D8A450EF07F052EF07F089
:100EA0006DEF07F04E50D8B458EF07F05AEF07F047
:100EB0006DEF07F05050D8A460EF07F062EF07F035
:100EC0006DEF07F04D50D8A468EF07F06AEF07F018
:100ED0006DEF07F04A0681EF08F04F28D8A473EFB2
:100EE00007F075EF07F090EF07F05028D8B47BEFCC
:100EF00007F07DEF07F090EF07F04E50D8A483EF96
:100F000007F085EF07F090EF07F04D50D8A48BEF76
:100F100007F08DEF07F090EF07F04B2A81EF08F014
:100F20005028D8A496EF07F098EF07F0B3EF07F03A
:100F30004F50D8B49EEF07F0A0EF07F0B3EF07F0E3
:100F40004E50D8A4A6EF07F0A8EF07F0B3EF07F0D4
:100F50004D50D8A4AEEF07F0B0EF07F0B3EF07F0B5
:100F6000490681EF08F05028D8A4B9EF07F0BBEF8D
:100F700007F0D6EF07F04E28D8B4C1EF07F0C3EF63
:100F800007F0D6EF07F04F50D8A4C9EF07F0CBEF2A
:100F900007F0D6EF07F04D50D8A4D1EF07F0D3EF0C
:100FA00007F0D6EF07F04A2A81EF08F05028D8A4BE
:100FB000DCEF07F0DEEF07F0F9EF07F04E28D8A4DA
:100FC000E4EF07F0E6EF07F0F9EF07F04D28D8B4AB
:100FD000ECEF07F0EEEF07F0F9EF07F04F50D8A471
:100FE000F4EF07F0F6EF07F0F9EF07F04C2A81EF86
:100FF00008F04D28D8A4FFEF07F001EF08F01DEF2F
:1010000008F05050D8B407EF08F009EF08F01DEFD2
:1010100008F04E50D8B40FEF08F011EF08F01DEFB4
:1010200008F04F50D8A417EF08F019EF08F01DEFA3
:1010300008F04B064A0681EF08F04D28D8A423EFAC
:1010400008F025EF08F03FEF08F05050D8A42BEF40
:1010500008F02DEF08F03FEF08F04E28D8B433EF3A
:1010600008F035EF08F03FEF08F04F50D8A43BEF01
:1010700008F03DEF08F03FEF08F0D3EF07F04D50D8
:10108000D8B445EF08F047EF08F062EF08F0505091
:10109000D8A44DEF08F04FEF08F062EF08F04E28AB
:1010A000D8A455EF08F057EF08F062EF08F04F5062
:1010B000D8A45DEF08F05FEF08F062EF08F04C068F
:1010C00081EF08F04E28D8A468EF08F06AEF08F026
:1010D0007DEF08F05050D8B470EF08F072EF08F0D0
:1010E0007DEF08F04F50D8A478EF08F07AEF08F0C1
:1010F0007DEF08F04B0681EF08F04A6A496A4B68B9
:101100004C6849C549F54AC54AF54BC54BF54CC530
:101110004CF512009EEC0CF074EC0BF0A1EC0BF013
:10112000D68E01015289020E0501E56F000E010104
:1011300050B5010E2A6E2AC52BF50001B381010EB0
:10114000296E0501EF69EE6BF06BF16B000E01018A
:1011500050B5010E2A6EDFEF08F013EC09F0F5EF41
:1011600008F040EC0BF00501EF51FF0ABD6FEE51A6
:10117000FF0ABE6FF051FF0ABF6FF151FF0AC06F47
:10118000EEC549F5EFC54AF5F0C54BF5F1C54CF58F
:101190001FEC07F049C5EEF54AC5EFF54BC5F0F574
:1011A0004CC5F1F5EFC5C1F5EEC5C2F5F0C5C3F507
:1011B000F1C5C4F5FF0E0101511BF5EF08F0050163
:1011C000E551536E546A5450000AD8B4EAEF08F05F
:1011D000F5EF08F05350010AD8B4ADEF08F0030A58
:1011E000D8B4B1EF08F0F5EF08F00001FBBBFBEF5E
:1011F00008F0FDEF08F001EF09F0B8EC0CF0000189
:10120000FB8D114A122A020E546EA00E536E920EDE
:10121000E82EFED7532EFCD7542EFAD700D0A6EFD7
:1012200008F00DEF00F0516A010E0501BC6F512A64
:10123000030E2C601EEF09F020EF09F023EF09F0F8
:101240002C2A94EF09F0526A5250040D600EF324D8
:10125000D96E050EF420DA6EDEC449F5DEC44AF517
:10126000DEC44BF5DEC44CF51FEC07F05250040D04
:10127000600EF324D96E050EF420DA6E49C5DEF453
:101280004AC5DEF44BC5DEF44CC5DEF45250040D05
:10129000600EF324D96E050EF420DA6EBC0E5124D4
:1012A000E16EE26A050EE222DFC4E7F4512A5250F1
:1012B000040D610EF324D96E050EF420DA6EBC0E17
:1012C0005124E16EE26A050EE222DFC4E7F4512AFE
:1012D0005250040D620EF324D96E050EF420DA6E1E
:1012E000BC0E5124E16EE26A050EE222DFC4E7F48F
:1012F000512A5250040D630EF324D96E050EF420CA
:10130000DA6EBC0E5124E16EE26A050EE222DFC401
:10131000E7F4512A522A090E526491EF09F093EF33
:1013200009F024EF09F02C6A12003150020D010E71
:10133000F324D96E050EF420DA6EDE6ADD6A02014E
:10134000C7A7A5EF09F0A7EF09F0C6EF09F03150E4
:10135000020D010EF324D96E050EF420DA6EDF8241
:101360001B501C10D8B4B7EF09F0B9EF09F0C6EF65
:1013700009F002D8C6EF09F00500FA6E1B50FD6EA9
:101380001C50FE6EF850FF6EFA5012000201C7A307
:10139000CCEF09F0CEEF09F0EDEF09F03150020D7E
:1013A000010EF324D96E050EF420DA6EDF84195095
:1013B0001A10D8B4DEEF09F0E0EF09F0EDEF09F014
:1013C00002D8EDEF09F00500FA6E1950FD6E1A50C3
:1013D000FE6EF850FF6EFA501200B6C245F5312885
:1013E000070B466E30504618D8A4F9EF09F0FBEF12
:1013F00009F0FDEF09F008EF0AF0B40E3124D96EC0
:10140000DA6A050EDA2245C5DFF446C531F52F2A22
:101410001200FAC447F5FBC448F5ADAE12EF0AF06E
:1014200014EF0AF01FEF0AF0B9AE19EF0AF01BEF44
:101430000AF01FEF0AF016EC0CF05BEF0AF0AEA218
:1014400024EF0AF026EF0AF03DEF0AF0BAA22BEFE4
:101450000AF02DEF0AF03DEF0AF002D83BEF0AF058
:1014600005000501FA6EF051FD6EF151FE6EF85067
:10147000FF6EFA5012005BEF0AF0AEA042EF0AF0E6
:1014800044EF0AF05BEF0AF0BAA049EF0AF04BEF25
:101490000AF05BEF0AF002D859EF0AF005000501E7
:1014A000FA6EEE51FD6EEF51FE6EF850FF6EFA507F
:1014B00012005BEF0AF048C5FBF447C5FAF41100CF
:1014C000EC0EF66E170EF76E000EF86E01EE00F2DF
:1014D00010EE40F00900F5C4EEF4E550E150FAE1F9
:1014E000980EF66E170EF76E000EF86E01EE60F1B4
:1014F00010EE54F00900F5C4EEF4E550E150FAE1C5
:10150000860EF66E190EF76E000EF86E01EE35F1CE
:1015100010EE10F00900F5C4EEF4E550E150FAE1E8
:1015200001EE00F310EE00F1EE6AE550E150FCE14F
:10153000E250FAE101EEB4F1310EEE6AE806FDE1A7
:1015400001EE01F1340EEE6AE806FDE10401080E39
:101550005D6F000E5E6F000E5F6F000EF86E000193
:101560008AEF08F00101406B416B426B0401026B92
:101570000A6B126B1A6B226B01014869F30E496FFB
:101580002F0E4A6F080E4C6FFB0E0401006FF30E16
:10159000086F070E106F070E206F016B096B116B40
:1015A000196B216B03690B697F0E136F1B69070EA3
:1015B000236F04690C697F0E146F1C690F0E246F72
:1015C0000201866B876B846B856B150E726F150E2F
:1015D000176F0401056B066B076B3D6B3E6B3F6B32
:1015E0000D6B0E6B0F6B156B166B176B1D6B1E6BFC
:1015F0001F6B256B266B276B1200AE902A0E050120
:10160000EE6F130EEF6FAE92CA0EF06F180EF16F01
:101610000201B66BB76BB86BB96BBA6BBB6BBC6BCB
:10162000BD6BBE6BBF6BB00EC06F800EC16F280E5E
:10163000C26F3F0EC36FC46B2E0EC56FC66B800E9C
:10164000C76FC86BC60E496E190E4A6E90EC0CF04F
:10165000C40E496E190E4A6E82EC0CF0000E496EF3
:10166000000E4A6E74EC0CF0000E1E6E000E1D6E25
:10167000346A336A326A316A306A2F6AAE80120085
:101680004A6A010E0501BC6F4A2A496ABC0E4A2407
:10169000D96EDA6A050EDA2249C5DFF44A2ABC0E91
:1016A0004A24D96EDA6A050EDA2249C5DFF44A2ADD
:1016B000BC0E4A24D96EDA6A050EDA2249C5DFF477
:1016C0004A2ABC0E4A24D96EDA6A050EDA2249C5C6
:1016D000DFF44A2A492A090E496471EF0BF073EFCF
:1016E0000BF046EF0BF012000201C051F00B0A099B
:1016F000C06FC08BC099C295C251CF0B2009C26F79
:10170000C76BC86BC66B010EC56F000EBB6F270E93
:10171000BA6F000EBD6F000EBC6F000EBF6F000EE3
:10172000BE6FC08F000EC46F3F0EC36FB66BB86B39
:1017300001014A9D150E0201176FC18FB96BB76B7E
:1017400012000001E76BBC0EF86F050EF96F000E7A
:10175000FA6F020EF06FB80EEF6FE70EFC17FC8108
:10176000FC51F90B0209FC6F3F0EFC17000EF76FDE
:10177000290EF66F000EEE6F010EED6F210EFE6F5B
:10178000D69E070EB66F550EB46FAA0EB46FB48115
:10179000D68EFB8DFB8F120000FF0000D8FF0000EB
:1017A000FF460000FF0091009100FF000046FF008F
:1017B00000FFD80000000000000000000000000052
:1017C000FF00FFFF00FFFFFFFFFFFF00FFFF00FF25
:1017D000C00CF200200380000D49D60020C40E008A
:1017E000F7F31600FC960800FF000000FF00000061
:1017F00000000000FC00960008000000F700F30065
:10180000160000002000C4000E0000000D0049007A
:10181000D60000002000030080000000C0000C0083
:10182000F2000000000000000000FF00B99E205000
:101830000301196F1FC518F355505610D8B423EF84
:101840000CF025EF0CF032EF0CF002D832EF0CF078
:101850000500FA6E5550FD6E5650FE6EF850FF6E44
:10186000FA5012001200D69AB790D680000E496E38
:10187000000E4A6EDAEC0CF0BC90D682000E496E77
:10188000000E4A6ED5EC0CF0C090D684000E496E66
:10189000000E4A6ED0EC0CF01200060E0301196F18
:1018A000186B700E1B6F19514B6E18511F6E4BC584
:1018B00020F5C80E496E190E4A6ECBEC0CF0B99E9D
:1018C000AD8E900E03011A6F1200000E3324D96EF4
:1018D000DA6A070EDA22DF500201B86F3328456E4C
:1018E00045C533F5322A120049504A10D8B47BEF6F
:1018F0000CF07DEF0CF081EF0CF049C517F54AC5EF
:1019000018F5120049504A10D8B489EF0CF08BEF4B
:101910000CF08FEF0CF049C519F54AC51AF5120005
:1019200049504A10D8B497EF0CF099EF0CF09DEFA6
:101930000CF049C51BF54AC51CF51200ABEC0CF0C8
:10194000B2EC0AF04DEC0CF0FDEC0AF0DFEC0CF020
:1019500033EC0CF01200600E0001AD6F400EAF6F63
:10196000B36B080EB16FB06BAC6B0401586B120017
:101970000201C09BC0BBBFEF0CF0C1EF0CF0BAEF8F
:101980000CF0C08B120000FF0000640000006464D3
:1019900000000064000049C555F54AC556F512001F
:1019A00049C521F54AC522F5120049C523F54AC5A6
:1019B00024F5120049C525F54AC526F51200010196
:0A19C0000D6B12001200120012005D
:020000040030CA
:0700000086FFF7FC9FFF1FC4
:03000800FFFFFFF8
:02001800FFFFE8
:01001C00FFE4
:00000001FF
